:03000000020A925F
:0C0A9200787FE4F6D8FD758107020AD9D0
:100DEB00120B957FF47E01120FAE120F667FF47E0D
:100DFB0001120FAE9000547406F0900054E0D3949F
:100E0B00007480948040151205321200037F007E1F
:0D0E1B0058120FAE900054E014F080DE225B
:100BF30020202020BBB6D3ADCAB9D3C3002020D652
:100C0300C7C4DCD4C6BFBCC7DABBFA002020D6B841
:100C1300CEC6CAB6B1F0CFB5CDB3002020CAC7B790
:100C2300F1D1E9D6A4D6B8CEC63F002020C3DCC29A
:100C3300EBC7A9B5BDCFB5CDB3002020CAC7B7F167
:0A0C4300CAE4C8EBC3DCC2EB3F00BB
:100CDF0041002C0041002D0044002E0BF30C00446A
:0D0CEF0000320C0F0C1E4400360C2E0C3D84
:100FDC00C2CBD2CAD2C97590FFE5905480648060B0
:040FEC00F8C2C9225C
:100F3000120FDCC2CBC2CAD2C98F907F147E0012BE
:0B0F40001012C2C97F147E00021012C4
:100F4B00120FDCD2CBC2CAD2C98F907F147E001293
:0B0F5B001012C2C97F147E00021012A9
:100B95007F287E00120FAED2C87F017E00120FAEF5
:100BA500C2C07F017E00120FAED2C07F0A7E001246
:100BB5000FAE7F30120F307F787E001210127F301B
:100BC500120F307F327E001210127F0C120F307F11
:100BD500787E001210127F01120F307F0A7E0012FC
:0E0BE5000FAE7F06120F307F787E00021012D6
:100DAB0090005BEFF0ED24FE601214601714601CD2
:100DBB002403702290005BE02480801690005BE09F
:100DCB002490800E90005BE02488800690005BE00E
:100DDB002498FF120F30E4FF120F4BE4FF020F4B6E
:090B1E00E0FAA3E0FB7D01E4FF15
:100B2700900050EFF0A3EAF0A3EBF0ED24FE601283
:100B370014601714601C24037022900050E0248076
:100B47008016900050E02490800E900050E024889A
:100B57008006900050E02498FF120F30900051E07B
:100B6700FEA3E0F5828E83E493FFD3940074809410
:100B770080401A120F4B900052E004F0700690006C
:0E0B870051E004F07F787E0012101280CF2221
:0C0FF0007F01120F307F147E00020FAE54
:100F6600120FF090002E120B1E900030E0FAA3E054
:080F7600FB7D03E4FF020B27E1
:100F7E00120FF0900032120B1E900034E0FAA3E034
:080F8E00FB7D03E4FF020B27C9
:100F9600120FF0900036120B1E900038E0FAA3E014
:080FA600FB7D03E4FF020B27B1
:0A101200EF1F70011E144E70F7224C
:100FAE00AD07AC06ED1DAE0470011C4E60097F7DD1
:080FBE007E0012101280ED22EA
:100D690031003200330034003500360037003800D6
:100D7900390020202020C7EBCDA8D0D000C3DCC289
:100D8900EBB4EDCEF300C7EBD6D8D0C2CAE4C8EBBA
:100D9900C3DCC2EB00C7EBCAE4C8EBC3DCC2EBA3FC
:020DA900BA008E
:100CFC0044003A0001B20744003E000000004200EC
:030D0C00420000A2
:1005320075A0EF900050E5A0F0E0540FF0640F605A
:100542005B7F287E00120FAE900050E5A0F0E054D1
:100552000FF0900050E0640F6042E5A0F0E0241933
:10056200602324FC601724FE600B14701E9000535D
:100572007401F080169000537402F0800E900053C4
:100582007403F08006900053740AF0900050E06407
:100592000F60BFE5A0F0E0540FF080EF75A0DF9090
:1005A2000050E5A0F0E0540FF0900050E0640F60BE
:1005B2005B7F287E00120FAE900050E5A0F0E05461
:1005C2000FF0900050E0640F60DFE5A0F0E0242916
:1005D200602324FC601724FE600B14701E900053ED
:1005E2007404F080169000537405F0800E9000534E
:1005F2007406F08006900053740BF0900050E06493
:100602000F60BFE5A0F0E0540FF080EF75A0BF903F
:100612000050E5A0F0E0540FF0900050E0640F604D
:100622005B7F287E00120FAE900050E5A0F0E054F0
:100632000FF0900050E0640F60DFE5A0F0E0244985
:10064200602324FC601724FE600B14701E9000537C
:100652007407F080169000537408F0800E900053D7
:100662007409F08006900053740EF0900050E0641C
:100672000F60BFE5A0F0E0540FF080EF75A07F900F
:100682000050E5A0F0E0540FF0900050E0640F60DD
:10069200587F287E00120FAE900050E5A0F0E05483
:1006A2000FF0900050E0640F60DFE5A0F0E02489D5
:1006B200602024FC601624FE600B14701B90005313
:1006C200740CF08013E4900053F0800C900053748B
:1006D2000DF0900053740FF0900050E0640F60C270
:0E06E200E5A0F0E0540FF080EF900053E0FF31
:0106F00022E7
:10000300900053E014B4090040030202A790001EBD
:1000130075F003A4C58325F0C5837302003902007C
:100023007A0200BB0200FC02013D02017E0201BF15
:10003300020200020259900042A3E0FF7A0D7B699D
:100043007D02120B277F887E13120FAE900043E0D0
:1000530004F07006900042E004F0E47F0AFEFDFC29
:1000630090003EE0F8A3E0F9A3E0FAA3E0FB12045A
:1000730082EF2401020297900042A3E0FF7A0D7BF6
:100083006B7D02120B277F887E13120FAE90004305
:10009300E004F07006900042E004F0E47F0AFEFD05
:1000A300FC90003EE0F8A3E0F9A3E0FAA3E0FB1222
:1000B3000482EF2402020297900042A3E0FF7A0D2C
:1000C3007B6D7D02120B277F887E13120FAE90008B
:1000D30043E004F07006900042E004F0E47F0AFE7F
:1000E300FDFC90003EE0F8A3E0F9A3E0FAA3E0FBF7
:1000F300120482EF2403020297900042A3E0FF7AE6
:100103000D7B6F7D02120B277F887E13120FAE903B
:100113000043E004F07006900042E004F0E47F0A3C
:10012300FEFDFC90003EE0F8A3E0F9A3E0FAA3E0B3
:10013300FB120482EF2404020297900042A3E0FF23
:100143007A0D7B717D02120B277F887E13120FAE0F
:10015300900043E004F07006900042E004F0E47F76
:100163000AFEFDFC90003EE0F8A3E0F9A3E0FAA349
:10017300E0FB120482EF2405020297900042A3E001
:10018300FF7A0D7B737D02120B277F887E13120F7C
:10019300AE900043E004F07006900042E004F0E407
:1001A3007F0AFEFDFC90003EE0F8A3E0F9A3E0FA2D
:1001B300A3E0FB120482EF2406020297900042A3FD
:1001C300E0FF7A0D7B757D02120B277F887E131269
:1001D3000FAE900043E004F07006900042E004F09C
:1001E300E47F0AFEFDFC90003EE0F8A3E0F9A3E003
:1001F300FAA3E0FB120482EF240702029790004265
:10020300A3E0FF7A0D7B777D02120B277F887E1395
:10021300120FAE900043E004F07006900042E00439
:10022300F0C2CD7F327E00120FAED2CDE47F0AFE44
:10023300FDFC90003EE0F8A3E0F9A3E0FAA3E0FBA5
:10024300120482EF2406FFE43EFEE43DFDE43CFCA1
:1002530090003E1204F5900042A3E0FF7A0D7B79F3
:100263007D02120B277F887E13120FAE900043E0AE
:1002730004F07006900042E004F0E47F0AFEFDFC07
:1002830090003EE0F8A3E0F9A3E0FAA3E0FB120438
:1002930082EF2409FFE43EFEE43DFDE43CFC9000D4
:1002A3003E1204F5D3900043E09405900042E0949D
:1002B300005003020336E4F0A3F090003AE0FCA3FD
:1002C300E0FDA3E0FEA3E0FFA3E0F8A3E0F9A3E0D1
:1002D300FAA3E0FB1204D1701B120FF07A0D7B7BA3
:1002E3007D02E4FF120B27C2CD7FF47E01120FAE15
:1002F300D2CD8035120FF07A0D7B867D01E4FF129B
:100303000B277FE87E03120FAE7A0D7B8F7D02E40D
:10031300FF120B277F307E75120FAE120FF07A0D8E
:100323007B9E7D01E4FF120B2790003E1205010026
:0403330000000022A4
:100FC60043BA047584105384BF438E0475D78F7556
:060FD600D6FD438E10223F
:0B0FFC008F85E58430E1FB5384FD226B
:0A100700E58430E0FB5384FEAF8562
:0110110022BC
:10091B00C7EBB0B4CAD6D6B82000CBD1CBF7B3C98E
:10092B00B9A6002020C7EBCDA8D0D00049443A008F
:10093B00C9E8B1B8BCD3D4D8D6D02E2E2E2E2E00CB
:10094B002A00C9E8B1B8BCD3D4D8CAA7B0DC00C957
:10095B00E8B1B8BCD3D4D8B3C9B9A600BBB6D3AD34
:10096B00CAB9D3C300D6B8CEC6CAB6B1F0CFB5CDCF
:10097B00B300CFB5CDB3B3F5CABCBBAFD6D0000176
:10098B0000071300000000001BEF01FFFFFFFF013A
:10099B0000030100050100031D00210100080401F3
:1009AB00000003E700F80100080401000000130039
:1009BB0021010004020100080100040202000901E8
:0E09CB0000030500090100030D0011000000EB
:100D0F0042000100004100000049000301000606F7
:050D1F0001000B0019AA
:100E2800E4900055F0A3F0900055E0FEA3E0FFC366
:100E38009406EE64809480502074942FF58274098F
:100E48003EF583E493FF120FFC900056E004F07027
:090E5800D6900055E004F080CEB4
:010E6100226E
:100D2500E4900057F0A3F0120E28E4900057F0A3CA
:100D3500F0900057E0FEA3E0FFC3940AEE648094B0
:100D4500805020748A2FF58274093EF583E493FF61
:100D5500120FFC900058E004F070D6900057E004A4
:030D6500F080CE4D
:010D68002268
:050E6200900059EFF0C3
:100E6700E4A3F0900059E0FFA3E0C39F501A1210CB
:100E77000790005AE0240CF582E43400F583EFF084
:080E870090005AE004F080DB4A
:010E8F002240
:100E9000120E28E490005CF090005CE0FFC3940622
:100EA000748094805011EF90099A93FF120FFC9078
:070EB000005CE004F080E1AA
:010EB7002218
:100EB800120E28E490005DF090005DE0FFC39407F7
:100EC800748094805011EF9009BC93FF120FFC902E
:070ED800005DE004F080E181
:010EDF0022F0
:100C4D00E490005EF090005EE0FFC3940674809423
:100C5D00805011EF90099493FF120FFC90005EE00D
:100C6D0004F080E1E490005EF090005EE0FFC3943C
:100C7D0007748094805011EF9009C393FF120FFCFD
:080C8D0090005EE004F080E13C
:010C9500223C
:100EE000120E28E490005FF090005FE0FFC3940BC7
:100EF000748094805011EF9009A693FF120FFC901C
:070F0000005FE004F080E156
:010F070022C7
:100F0800120E28E4900060F0900060E0FFC39406A1
:100F1800748094805011EF9009CA93FF120FFC90CF
:070F28000060E004F080E12D
:010F2F00229F
:100C9600E4900061F0900061E0FFC39406748094D4
:100CA600805011EF90099493FF120FFC900061E0C1
:100CB60004F080E1E4900061F0900061E0FFC394ED
:100CC60006748094805011EF9009D093FF120FFCA8
:080CD600900061E004F080E1F0
:010CDE0022F3
:0409D900AB07AA06B8
:1009DD0090004612050100000000EA900008F0EBBF
:1009ED00A3F0E490004AF090004AE0C394077480AD
:1009FD0094805039900046E0F8A3E0F9A3E0FAA303
:100A0D00E0FBA3E02403F582E43400F583E0FFE48A
:100A1D00FCFDFEEB2FFFEE3AFEED39FDEC38FC90C0
:100A2D0000461204F590004AE004F080BA900046AA
:100A3D00A3A3E0FEA3E4FFE4FDFC78081204E2901A
:100A4D00000AEFF0900046E0FCA3E0FDA3E0FEA35A
:100A5D00E0FF90000BEFF0120E28E490004AF090AA
:100A6D00004AE0FFC3940974809480501774032FDB
:100A7D00F582E43400F583E0FF120FFC90004AE0AC
:040A8D0004F080DB16
:010A91002242
:1006F100E490004BF0A3F0784D7C007D017BFF7A04
:100701000979D6FE7F031204077F107E27120FAEF0
:10071100120FF07A097B1B7D01E4FF120B277F107A
:100721007E27120FAE120E907F0C120E62900015F2
:10073100E0600302082E7F64FE120FAE120EB87F36
:100741000C120E62120EE07F10120E62900015E084
:10075100600302082B120FF07A097B1B7D01E4FF75
:10076100120B277A097B257D02E4FF120B277F10EC
:100771007E27120FAE7F107E27120FAE120FF07A76
:10078100097B2E7D02E4FF120B277F107E27120FBB
:10079100AE900016E0FEA3E07C002400FFEC3E904A
:1007A100004BF0A3EFF090004BE0FAA3E0FB7D6477
:1007B100FFAE0212042DA3EFF07C007D64AF03AE07
:1007C1000212042DAA04AB057D0A7C00AF03AE0220
:1007D10012042DA3EFF07D0A7C00AF03AE021204D8
:1007E1002DA3EDF07A097B377D03E4FF120B277F00
:1007F1008C120F3090004DE02430FF120F4B7F8D93
:10080100120F3090004EE02430FF120F4B7F8E12FA
:100811000F3090004FE02430FF120F4B7FD07E0746
:10082100120FAE7FD07E07020FAE1206F190005379
:0C083100E07004A3E0640E7003020726D0
:01083D002298
:10083E00E4900062F090001504F0120FF07A097B3C
:10084E003B7D01E4FF120B277F887E13120FAEE46F
:10085E00900062F0900062E0FFC394087480948070
:10086E0050187A097B4B7D02120B277F207E0312D4
:10087E000FAE900062E004F080DA7A097B4D7D03C2
:10088E00E4FF120B27120D257F0C120E629000153D
:10089E00E07079120FF07A097B5A7D02E4FF120B99
:1008AE00277F887E13120FAE120FF07A097B677DB9
:1008BE00017F02120B277A097B707D027F01120BDA
:1008CE00277F887E13120FAE7A097B7D7D037F0111
:1008DE00120B277F887E13120FAEE4900062F09009
:1008EE000062E0FFC394087480948050187A097BEC
:1008FE004B7D04120B277FB87E0B120FAE90006259
:0C090E00E004F080DA7FE87E03120FAEF8
:01091A0022BA
:100A9E00020DEBE493A3F8E493A34003F68001F276
:100AAE0008DFF48029E493A3F85407240CC8C33359
:100ABE00C4540F4420C8834004F456800146F6DF28
:100ACE00E4800B0102040810204080900CDFE47ECD
:100ADE00019360BCA3FF543F30E509541FFEE4931D
:100AEE00A360010ECF54C025E060A840B8E493A3E4
:100AFE00FAE493A3F8E493A3C8C582C8CAC583CA0F
:100B0E00F0A3C8C582C8CAC583CADFE9DEE780BEC6
:010D240000CE
:10033700E709F608DFFA8046E709F208DFFA803EA8
:1003470088828C83E709F0A3DFFA8032E309F60895
:10035700DFFA8078E309F208DFFA807088828C83FD
:10036700E309F0A3DFFA806489828A83E0A3F608B1
:10037700DFFA805889828A83E0A3F208DFFA804C8B
:1003870080D280FA80C680D4806980F28033801062
:1003970080A680EA809A80A880DA80E280CA8033CB
:1003A70089828A83ECFAE493A3C8C582C8CCC58343
:1003B700CCF0A3C8C582C8CCC583CCDFE9DEE78013
:1003C7000D89828A83E493A3F608DFF9ECFAA9F092
:1003D700EDFB2289828A83ECFAE0A3C8C582C8CCE8
:1003E700C583CCF0A3C8C582C8CCC583CCDFEADE01
:1003F700E880DB89828A83E493A3F208DFF980CC63
:1004070088F0EF60010E4E60C388F0ED2402B4045B
:100417000050B9F582EB2402B4040050AF23234502
:060427008223900387739D
:10042D00BC000BBE0029EF8DF084FFADF022E4CCB3
:10043D00F875F008EF2FFFEE33FEEC33FCEE9DEC7C
:10044D00984005FCEE9DFE0FD5F0E9E4CEFD22EDC2
:10045D00F8F5F0EE8420D21CFEADF075F008EF2F0C
:10046D00FFED33FD4007985006D5F0F222C398FDFD
:05047D000FD5F0EA229A
:10048200E88FF0A4CC8BF0A42CFCE98EF0A42CFC19
:100492008AF0EDA42CFCEA8EF0A4CDA8F08BF0A497
:1004A2002DCC3825F0FDE98FF0A42CCD35F0FCEBF6
:1004B2008EF0A4FEA9F0EB8FF0A4CFC5F02ECD39BB
:0F04C200FEE43CFCEAA42DCE35F0FDE43CFC2228
:1004D100EB9FF5F0EA9E42F0E99D42F0E89C45F081
:0104E10022F8
:1004E200E8600FECC313FCED13FDEE13FEEF13FFF8
:0304F200D8F1221C
:0C04F500ECF0A3EDF0A3EEF0A3EFF0227A
:10050100A8828583F0D083D08212051812051812B3
:100511000518120518E473E493A3C583C5F0C583D8
:10052100C8C582C8F0A3C583C5F0C583C8C582C844
:0105310022A7
:00000001FF
